00000001GABRIEL MARTINS               1001C00000243075
00000002RODRIGO SOARES                1002P00000067580
00000003RENATA ALMEIDA                1001X00000008540
00000004BRUNO OLIVEIRA                1003C00000175000
00000005LARISSA MENDES                1002P00000132545
00000006ANDRE SILVA                   1003C00000001890
00000007FELIPE CARDOSO                1001C00000158060
00000008TIAGO QUEIROZ                 1002P00000041090
00000009MARIANA COSTA                 1003X00000004560
00000010ISABELA NUNES                 1001P00000220030
00000011JULIANA FREITAS               1002C00000098050
00000012VINICIUS BARBOSA              1003P00000142015
