00000013PATRICIA LIMA                 1001C00000095000
00000014CARLOS MENDES                 1002P00000310050
00000015AMANDA FERREIRA               1003C00000187030
